{
  "contractName": "Casino",
  "abi": [
    {
      "anonymous": false,
      "inputs": [
        {
          "indexed": false,
          "internalType": "address payable",
          "name": "winner",
          "type": "address"
        },
        {
          "indexed": false,
          "internalType": "uint256",
          "name": "payout",
          "type": "uint256"
        }
      ],
      "name": "Payout",
      "type": "event"
    },
    {
      "anonymous": false,
      "inputs": [
        {
          "indexed": true,
          "internalType": "address payable",
          "name": "player",
          "type": "address"
        },
        {
          "indexed": false,
          "internalType": "uint256",
          "name": "betSize",
          "type": "uint256"
        },
        {
          "indexed": false,
          "internalType": "uint8",
          "name": "betNumber",
          "type": "uint8"
        },
        {
          "indexed": false,
          "internalType": "uint8",
          "name": "winningNumber",
          "type": "uint8"
        }
      ],
      "name": "Play",
      "type": "event"
    },
    {
      "constant": false,
      "inputs": [],
      "name": "kill",
      "outputs": [],
      "payable": false,
      "stateMutability": "nonpayable",
      "type": "function"
    },
    {
      "constant": true,
      "inputs": [],
      "name": "owner",
      "outputs": [
        {
          "internalType": "address payable",
          "name": "",
          "type": "address"
        }
      ],
      "payable": false,
      "stateMutability": "view",
      "type": "function"
    },
    {
      "constant": false,
      "inputs": [],
      "name": "fund",
      "outputs": [],
      "payable": true,
      "stateMutability": "payable",
      "type": "function"
    },
    {
      "constant": false,
      "inputs": [
        {
          "internalType": "uint8",
          "name": "number",
          "type": "uint8"
        }
      ],
      "name": "bet",
      "outputs": [],
      "payable": true,
      "stateMutability": "payable",
      "type": "function"
    },
    {
      "constant": true,
      "inputs": [],
      "name": "getMaxBet",
      "outputs": [
        {
          "internalType": "uint256",
          "name": "",
          "type": "uint256"
        }
      ],
      "payable": false,
      "stateMutability": "view",
      "type": "function"
    }
  ],
  "bytecode": "0x6080604052336000806101000a81548173ffffffffffffffffffffffffffffffffffffffff021916908373ffffffffffffffffffffffffffffffffffffffff160217905550610506806100536000396000f3fe60806040526004361061004a5760003560e01c806341c0e1b51461004f578063646668b6146100665780638da5cb5b14610091578063b60d4288146100e8578063d0821b0e146100f2575b600080fd5b34801561005b57600080fd5b50610064610123565b005b34801561007257600080fd5b5061007b610202565b6040518082815260200191505060405180910390f35b34801561009d57600080fd5b506100a6610214565b604051808273ffffffffffffffffffffffffffffffffffffffff1673ffffffffffffffffffffffffffffffffffffffff16815260200191505060405180910390f35b6100f0610239565b005b6101216004803603602081101561010857600080fd5b81019080803560ff16906020019092919050505061023b565b005b6000809054906101000a900473ffffffffffffffffffffffffffffffffffffffff1673ffffffffffffffffffffffffffffffffffffffff163373ffffffffffffffffffffffffffffffffffffffff16146101c8576040517f08c379a00000000000000000000000000000000000000000000000000000000081526004018080602001828103825260258152602001806104ad6025913960400191505060405180910390fd5b6000809054906101000a900473ffffffffffffffffffffffffffffffffffffffff1673ffffffffffffffffffffffffffffffffffffffff16ff5b60006064478161020e57fe5b04905090565b6000809054906101000a900473ffffffffffffffffffffffffffffffffffffffff1681565b565b610243610202565b34111561029b576040517f08c379a00000000000000000000000000000000000000000000000000000000081526004018080602001828103825260268152602001806104876026913960400191505060405180910390fd5b60003411610311576040517f08c379a00000000000000000000000000000000000000000000000000000000081526004018080602001828103825260168152602001807f41206265742073686f756c6420626520706c616365640000000000000000000081525060200191505060405180910390fd5b600061031b6103a7565b90503373ffffffffffffffffffffffffffffffffffffffff167f8d452175756441ce5a1392551bff6087cffc5fe41a0b0beb519c6194aab7cd85348484604051808481526020018360ff1660ff1681526020018260ff1660ff168152602001935050505060405180910390a28060ff168260ff1614156103a3576103a233600a34026103bc565b5b5050565b60006001600a43816103b557fe5b0601905090565b600081116103c657fe5b478111156103d057fe5b8173ffffffffffffffffffffffffffffffffffffffff166108fc829081150290604051600060405180830381858888f19350505050158015610416573d6000803e3d6000fd5b507f5afeca38b2064c23a692c4cf353015d80ab3ecc417b4f893f372690c11fbd9a68282604051808373ffffffffffffffffffffffffffffffffffffffff1673ffffffffffffffffffffffffffffffffffffffff1681526020018281526020019250505060405180910390a1505056fe42657420616d6f756e742063616e206e6f7420657863656564206d6178206265742073697a654f6e6c7920746865206f776e65722063616e206b696c6c207468697320636f6e7472616374a265627a7a72315820e71ca752170f63dc0468af3e5fd7eab43ad6d7fa78a0858b7405c18cf6d3d6c664736f6c63430005100032",
  "source": "pragma solidity ^0.5.8;\n\nimport \"./Killable.sol\";\n\ncontract Casino is Killable {\n    event Play(address payable indexed player, uint256 betSize, uint8 betNumber, uint8 winningNumber);\n    event Payout(address payable winner, uint256 payout);\n\n    function fund() external payable {}\n\n    function bet(uint8 number) external payable {\n        require(msg.value <= getMaxBet(), \"Bet amount can not exceed max bet size\");\n        require(msg.value > 0, \"A bet should be placed\");\n\n        uint8 winningNumber = generateWinningNumber();\n        emit Play(msg.sender, msg.value, number, winningNumber);\n\n        if (number == winningNumber) {\n            payout(msg.sender, msg.value * 10);\n        }\n    }\n\n    function getMaxBet() public view returns (uint256) {\n        return address(this).balance / 100;\n    }\n\n    function generateWinningNumber() internal view returns (uint8) {\n        return uint8(block.number % 10 + 1); // Don't do this in production\n    }\n\n    function payout(address payable winner, uint256 amount) internal {\n        assert(amount > 0);\n        assert(amount <= address(this).balance);\n\n        winner.transfer(amount);\n        emit Payout(winner, amount);\n    }\n}\n",
  "sourcePath": "D:/truffle-event-tests/contracts/Casino.sol",
  "compiler": {
    "name": "solc",
    "version": "0.5.16+commit.9c3226ce.Emscripten.clang"
  },
  "schemaVersion": "3.3.0",
  "updatedAt": "2020-10-10T10:49:35.926Z",
  "devdoc": {
    "methods": {}
  },
  "userdoc": {
    "methods": {}
  }
}