{
  "contractName": "Killable",
  "abi": [
    {
      "inputs": [],
      "payable": false,
      "stateMutability": "nonpayable",
      "type": "constructor"
    },
    {
      "constant": true,
      "inputs": [],
      "name": "owner",
      "outputs": [
        {
          "internalType": "address payable",
          "name": "",
          "type": "address"
        }
      ],
      "payable": false,
      "stateMutability": "view",
      "type": "function"
    },
    {
      "constant": false,
      "inputs": [],
      "name": "kill",
      "outputs": [],
      "payable": false,
      "stateMutability": "nonpayable",
      "type": "function"
    }
  ],
  "bytecode": "0x608060405234801561001057600080fd5b50336000806101000a81548173ffffffffffffffffffffffffffffffffffffffff021916908373ffffffffffffffffffffffffffffffffffffffff1602179055506101ed806100606000396000f3fe608060405234801561001057600080fd5b50600436106100365760003560e01c806341c0e1b51461003b5780638da5cb5b14610045575b600080fd5b61004361008f565b005b61004d61016e565b604051808273ffffffffffffffffffffffffffffffffffffffff1673ffffffffffffffffffffffffffffffffffffffff16815260200191505060405180910390f35b6000809054906101000a900473ffffffffffffffffffffffffffffffffffffffff1673ffffffffffffffffffffffffffffffffffffffff163373ffffffffffffffffffffffffffffffffffffffff1614610134576040517f08c379a00000000000000000000000000000000000000000000000000000000081526004018080602001828103825260258152602001806101946025913960400191505060405180910390fd5b6000809054906101000a900473ffffffffffffffffffffffffffffffffffffffff1673ffffffffffffffffffffffffffffffffffffffff16ff5b6000809054906101000a900473ffffffffffffffffffffffffffffffffffffffff168156fe4f6e6c7920746865206f776e65722063616e206b696c6c207468697320636f6e7472616374a265627a7a72315820a058ddff01653a4dbcfbd610c067d3c3a37f0adbfaf5cff6d7472280c94fc67364736f6c63430005100032",
  "source": "pragma solidity ^0.5.8;\n\ncontract Killable {\n    address payable public owner;\n\n    constructor() public {\n        owner = msg.sender;\n    }\n\n    function kill() external {\n        require(msg.sender == owner, \"Only the owner can kill this contract\");\n        selfdestruct(owner);\n    }\n}\n",
  "sourcePath": "D:\\truffle-event-tests\\contracts\\Killable.sol",
  "compiler": {
    "name": "solc",
    "version": "0.5.16+commit.9c3226ce.Emscripten.clang"
  },
  "schemaVersion": "3.3.0",
  "updatedAt": "2020-10-12T10:34:22.464Z",
  "devdoc": {
    "methods": {}
  },
  "userdoc": {
    "methods": {}
  }
}